{
  "contractName": "AdminPanel",
  "abi": [
    {
      "inputs": [],
      "stateMutability": "nonpayable",
      "type": "constructor"
    },
    {
      "inputs": [
        {
          "internalType": "uint256",
          "name": "",
          "type": "uint256"
        }
      ],
      "name": "MatchDetails",
      "outputs": [
        {
          "internalType": "uint256",
          "name": "User1Choice",
          "type": "uint256"
        },
        {
          "internalType": "address",
          "name": "User1Addr",
          "type": "address"
        },
        {
          "internalType": "uint256",
          "name": "User2Choice",
          "type": "uint256"
        },
        {
          "internalType": "address",
          "name": "User2Addr",
          "type": "address"
        },
        {
          "internalType": "uint256",
          "name": "amount",
          "type": "uint256"
        }
      ],
      "stateMutability": "view",
      "type": "function",
      "constant": true
    },
    {
      "inputs": [
        {
          "internalType": "uint256",
          "name": "",
          "type": "uint256"
        },
        {
          "internalType": "uint256",
          "name": "",
          "type": "uint256"
        }
      ],
      "name": "PaymentMethod",
      "outputs": [
        {
          "internalType": "address",
          "name": "",
          "type": "address"
        }
      ],
      "stateMutability": "view",
      "type": "function",
      "constant": true
    },
    {
      "inputs": [],
      "name": "owner",
      "outputs": [
        {
          "internalType": "address",
          "name": "",
          "type": "address"
        }
      ],
      "stateMutability": "view",
      "type": "function",
      "constant": true
    },
    {
      "inputs": [],
      "name": "projectToken",
      "outputs": [
        {
          "internalType": "contract IERC20",
          "name": "",
          "type": "address"
        }
      ],
      "stateMutability": "view",
      "type": "function",
      "constant": true
    },
    {
      "inputs": [
        {
          "internalType": "uint256",
          "name": "amount",
          "type": "uint256"
        },
        {
          "internalType": "uint256",
          "name": "currency",
          "type": "uint256"
        },
        {
          "internalType": "address",
          "name": "TokenAddr",
          "type": "address"
        }
      ],
      "name": "createPool",
      "outputs": [],
      "stateMutability": "nonpayable",
      "type": "function"
    },
    {
      "inputs": [
        {
          "internalType": "uint256",
          "name": "amount",
          "type": "uint256"
        },
        {
          "internalType": "uint256",
          "name": "currency",
          "type": "uint256"
        }
      ],
      "name": "JoinPool",
      "outputs": [],
      "stateMutability": "nonpayable",
      "type": "function"
    },
    {
      "inputs": [
        {
          "internalType": "uint256",
          "name": "amount",
          "type": "uint256"
        },
        {
          "internalType": "uint256",
          "name": "currency",
          "type": "uint256"
        },
        {
          "internalType": "uint256[]",
          "name": "MatchID",
          "type": "uint256[]"
        },
        {
          "internalType": "uint256[]",
          "name": "TeamID",
          "type": "uint256[]"
        }
      ],
      "name": "addChoice",
      "outputs": [],
      "stateMutability": "nonpayable",
      "type": "function"
    },
    {
      "inputs": [
        {
          "internalType": "uint256",
          "name": "amount",
          "type": "uint256"
        },
        {
          "internalType": "uint256",
          "name": "currency",
          "type": "uint256"
        },
        {
          "internalType": "uint256",
          "name": "MatchID",
          "type": "uint256"
        }
      ],
      "name": "getChoices",
      "outputs": [
        {
          "internalType": "uint256",
          "name": "",
          "type": "uint256"
        }
      ],
      "stateMutability": "view",
      "type": "function",
      "constant": true
    },
    {
      "inputs": [
        {
          "internalType": "uint256[]",
          "name": "matchIDs",
          "type": "uint256[]"
        },
        {
          "internalType": "uint256[]",
          "name": "winningTeamIds",
          "type": "uint256[]"
        },
        {
          "internalType": "uint256",
          "name": "amount",
          "type": "uint256"
        },
        {
          "internalType": "uint256",
          "name": "currency",
          "type": "uint256"
        }
      ],
      "name": "DistributeRewards",
      "outputs": [],
      "stateMutability": "nonpayable",
      "type": "function"
    },
    {
      "inputs": [
        {
          "internalType": "uint256",
          "name": "amount",
          "type": "uint256"
        },
        {
          "internalType": "uint256",
          "name": "currency",
          "type": "uint256"
        }
      ],
      "name": "isAllowed",
      "outputs": [
        {
          "internalType": "bool",
          "name": "",
          "type": "bool"
        }
      ],
      "stateMutability": "view",
      "type": "function",
      "constant": true
    },
    {
      "inputs": [
        {
          "internalType": "uint256",
          "name": "amount",
          "type": "uint256"
        },
        {
          "internalType": "uint256",
          "name": "currency",
          "type": "uint256"
        },
        {
          "internalType": "uint256",
          "name": "i",
          "type": "uint256"
        }
      ],
      "name": "getWinner",
      "outputs": [
        {
          "internalType": "address",
          "name": "",
          "type": "address"
        }
      ],
      "stateMutability": "view",
      "type": "function",
      "constant": true
    },
    {
      "inputs": [
        {
          "internalType": "uint256",
          "name": "amount",
          "type": "uint256"
        },
        {
          "internalType": "uint256",
          "name": "currency",
          "type": "uint256"
        },
        {
          "internalType": "uint256",
          "name": "i",
          "type": "uint256"
        }
      ],
      "name": "getWinnerscore",
      "outputs": [
        {
          "internalType": "uint256",
          "name": "",
          "type": "uint256"
        }
      ],
      "stateMutability": "view",
      "type": "function",
      "constant": true
    },
    {
      "inputs": [
        {
          "internalType": "uint256",
          "name": "amount",
          "type": "uint256"
        },
        {
          "internalType": "uint256",
          "name": "currency",
          "type": "uint256"
        },
        {
          "internalType": "uint256",
          "name": "i",
          "type": "uint256"
        }
      ],
      "name": "getWinnerAddress",
      "outputs": [
        {
          "internalType": "address",
          "name": "",
          "type": "address"
        }
      ],
      "stateMutability": "view",
      "type": "function",
      "constant": true
    },
    {
      "inputs": [
        {
          "internalType": "uint256[]",
          "name": "MatchIDs",
          "type": "uint256[]"
        }
      ],
      "name": "CheckArray",
      "outputs": [
        {
          "internalType": "uint256",
          "name": "",
          "type": "uint256"
        }
      ],
      "stateMutability": "pure",
      "type": "function",
      "constant": true
    },
    {
      "inputs": [
        {
          "internalType": "uint256",
          "name": "MatchID",
          "type": "uint256"
        },
        {
          "internalType": "uint256",
          "name": "Choice",
          "type": "uint256"
        },
        {
          "internalType": "uint256",
          "name": "amount",
          "type": "uint256"
        }
      ],
      "name": "AddMatchLeft",
      "outputs": [],
      "stateMutability": "nonpayable",
      "type": "function"
    },
    {
      "inputs": [
        {
          "internalType": "uint256",
          "name": "MatchID",
          "type": "uint256"
        },
        {
          "internalType": "uint256",
          "name": "Choice",
          "type": "uint256"
        },
        {
          "internalType": "uint256",
          "name": "amount",
          "type": "uint256"
        }
      ],
      "name": "AddMatchRight",
      "outputs": [],
      "stateMutability": "nonpayable",
      "type": "function"
    },
    {
      "inputs": [
        {
          "internalType": "uint256",
          "name": "MatchID",
          "type": "uint256"
        }
      ],
      "name": "getLeftMatch",
      "outputs": [
        {
          "internalType": "uint256",
          "name": "",
          "type": "uint256"
        }
      ],
      "stateMutability": "view",
      "type": "function",
      "constant": true
    },
    {
      "inputs": [
        {
          "internalType": "uint256",
          "name": "MatchID",
          "type": "uint256"
        }
      ],
      "name": "getRightMatch",
      "outputs": [
        {
          "internalType": "uint256",
          "name": "",
          "type": "uint256"
        }
      ],
      "stateMutability": "view",
      "type": "function",
      "constant": true
    },
    {
      "inputs": [
        {
          "internalType": "uint256",
          "name": "MatchID",
          "type": "uint256"
        }
      ],
      "name": "getMatch",
      "outputs": [
        {
          "components": [
            {
              "internalType": "uint256",
              "name": "User1Choice",
              "type": "uint256"
            },
            {
              "internalType": "address",
              "name": "User1Addr",
              "type": "address"
            },
            {
              "internalType": "uint256",
              "name": "User2Choice",
              "type": "uint256"
            },
            {
              "internalType": "address",
              "name": "User2Addr",
              "type": "address"
            },
            {
              "internalType": "uint256",
              "name": "amount",
              "type": "uint256"
            }
          ],
          "internalType": "struct AdminPanel.Match",
          "name": "",
          "type": "tuple"
        }
      ],
      "stateMutability": "view",
      "type": "function",
      "constant": true
    },
    {
      "inputs": [
        {
          "internalType": "uint256",
          "name": "MatchID",
          "type": "uint256"
        }
      ],
      "name": "getMatchAmount",
      "outputs": [
        {
          "internalType": "uint256",
          "name": "",
          "type": "uint256"
        }
      ],
      "stateMutability": "view",
      "type": "function",
      "constant": true
    },
    {
      "inputs": [
        {
          "internalType": "uint256",
          "name": "MatchID",
          "type": "uint256"
        }
      ],
      "name": "getMatchOfCurrentUser",
      "outputs": [
        {
          "internalType": "uint256",
          "name": "",
          "type": "uint256"
        },
        {
          "internalType": "uint256",
          "name": "",
          "type": "uint256"
        }
      ],
      "stateMutability": "view",
      "type": "function",
      "constant": true
    },
    {
      "inputs": [
        {
          "internalType": "uint256",
          "name": "MatchID",
          "type": "uint256"
        },
        {
          "internalType": "uint256",
          "name": "WinnerTeamID",
          "type": "uint256"
        }
      ],
      "name": "DecideWinner",
      "outputs": [],
      "stateMutability": "nonpayable",
      "type": "function"
    },
    {
      "inputs": [],
      "name": "getAddress",
      "outputs": [
        {
          "internalType": "address",
          "name": "",
          "type": "address"
        }
      ],
      "stateMutability": "view",
      "type": "function",
      "constant": true
    }
  ],
  "bytecode": "0x608060405234801561001057600080fd5b5033600160006101000a81548173ffffffffffffffffffffffffffffffffffffffff021916908373ffffffffffffffffffffffffffffffffffffffff160217905550614d6e806100616000396000f3fe60806040523480156200001157600080fd5b50600436106200016c5760003560e01c80635f7af67611620000d5578063ab7ed7fb1162000087578063ab7ed7fb1462000448578063c73e20331462000468578063d327e65b14620004a2578063ea6579dc14620004d8578063ecb52d4c146200050e578063f980bfd51462000544576200016c565b80635f7af676146200035a578063721da580146200037a5780637fd8b9a2146200039a5780638da5cb5b14620003ba578063936a23fd14620003dc578063a1e271b81462000412576200016c565b806338cc4831116200012f57806338cc483114620002545780633d092b3d14620002765780634890a05714620002ac5780634a1bf1ef14620002e25780634b60ce77146200031857806359e26233146200033a576200016c565b80630993c0eb14620001715780630b5d562714620001a757806323b43b5114620001de57806335639273146200021457806335a1c3861462000234575b600080fd5b6200018f6004803603810190620001899190620018e9565b6200057a565b6040516200019e91906200194d565b60405180910390f35b620001c56004803603810190620001bf91906200196a565b6200065c565b604051620001d5929190620019ad565b60405180910390f35b620001fc6004803603810190620001f69190620019da565b620007b0565b6040516200020b919062001a7b565b60405180910390f35b6200023260048036038101906200022c9190620019da565b6200087e565b005b6200025260048036038101906200024c919062001c0d565b62000b44565b005b6200025e62000c92565b6040516200026d919062001a7b565b60405180910390f35b6200029460048036038101906200028e91906200196a565b62000c9a565b604051620002a3919062001d51565b60405180910390f35b620002ca6004803603810190620002c49190620019da565b62000d93565b604051620002d9919062001d6e565b60405180910390f35b620003006004803603810190620002fa9190620019da565b62000e63565b6040516200030f919062001d6e565b60405180910390f35b6200032262000f31565b60405162000331919062001df6565b60405180910390f35b620003586004803603810190620003529190620018e9565b62000f55565b005b620003786004803603810190620003729190620018e9565b6200100c565b005b62000398600480360381019062000392919062001e13565b6200114c565b005b620003b86004803603810190620003b2919062001ef4565b62001209565b005b620003c462001354565b604051620003d3919062001a7b565b60405180910390f35b620003fa6004803603810190620003f491906200196a565b6200137a565b60405162000409919062001d6e565b60405180910390f35b6200043060048036038101906200042a9190620018e9565b6200139a565b6040516200043f919062001a7b565b60405180910390f35b620004666004803603810190620004609190620019da565b620013dc565b005b6200048660048036038101906200048091906200196a565b620016a2565b6040516200049995949392919062001f50565b60405180910390f35b620004c06004803603810190620004ba9190620019da565b62001718565b604051620004cf919062001a7b565b60405180910390f35b620004f66004803603810190620004f091906200196a565b620017e6565b60405162000505919062001d6e565b60405180910390f35b6200052c60048036038101906200052691906200196a565b62001806565b6040516200053b919062001d6e565b60405180910390f35b6200056260048036038101906200055c919062001fad565b62001826565b60405162000571919062001d6e565b60405180910390f35b6000600160026000848152602001908152602001600020600085815260200190815260200160002060009054906101000a900473ffffffffffffffffffffffffffffffffffffffff1673ffffffffffffffffffffffffffffffffffffffff1663babcc539336040518263ffffffff1660e01b8152600401620005fd919062001a7b565b602060405180830381865afa1580156200061b573d6000803e3d6000fd5b505050506040513d601f19601f8201168201806040525081019062000641919062002015565b0362000651576001905062000656565b600090505b92915050565b6000803373ffffffffffffffffffffffffffffffffffffffff166003600085815260200190815260200160002060010160009054906101000a900473ffffffffffffffffffffffffffffffffffffffff1673ffffffffffffffffffffffffffffffffffffffff160362000701576003600084815260200190815260200160002060000154600360008581526020019081526020016000206004015491509150620007ab565b3373ffffffffffffffffffffffffffffffffffffffff166003600085815260200190815260200160002060030160009054906101000a900473ffffffffffffffffffffffffffffffffffffffff1673ffffffffffffffffffffffffffffffffffffffff1603620007a3576003600084815260200190815260200160002060020154600360008581526020019081526020016000206004015491509150620007ab565b600080915091505b915091565b600060026000848152602001908152602001600020600085815260200190815260200160002060009054906101000a900473ffffffffffffffffffffffffffffffffffffffff1673ffffffffffffffffffffffffffffffffffffffff16634129b2c9836040518263ffffffff1660e01b815260040162000831919062001d6e565b602060405180830381865afa1580156200084f573d6000803e3d6000fd5b505050506040513d601f19601f820116820180604052508101906200087591906200205e565b90509392505050565b6000600360008581526020019081526020016000206002015414620008da576040517f08c379a0000000000000000000000000000000000000000000000000000000008152600401620008d190620020f1565b60405180910390fd5b600060036000858152602001908152602001600020600201540362000b3f573373ffffffffffffffffffffffffffffffffffffffff166003600085815260200190815260200160002060010160009054906101000a900473ffffffffffffffffffffffffffffffffffffffff1673ffffffffffffffffffffffffffffffffffffffff1603620009a0576040517f08c379a0000000000000000000000000000000000000000000000000000000008152600401620009979062002163565b60405180910390fd5b816003600085815260200190815260200160002060020181905550600360008481526020019081526020016000206002015460036000858152602001908152602001600020600001540362000a2c576040517f08c379a000000000000000000000000000000000000000000000000000000000815260040162000a2390620021d5565b60405180910390fd5b336003600085815260200190815260200160002060030160006101000a81548173ffffffffffffffffffffffffffffffffffffffff021916908373ffffffffffffffffffffffffffffffffffffffff160217905550600060036000858152602001908152602001600020600401540362000ac15780600360008581526020019081526020016000206004018190555062000b3e565b60006003600085815260200190815260200160002060040154111562000b3d578060036000858152602001908152602001600020600401541462000b3c576040517f08c379a000000000000000000000000000000000000000000000000000000000815260040162000b339062002247565b60405180910390fd5b5b5b5b505050565b3373ffffffffffffffffffffffffffffffffffffffff16600160009054906101000a900473ffffffffffffffffffffffffffffffffffffffff1673ffffffffffffffffffffffffffffffffffffffff161462000bd7576040517f08c379a000000000000000000000000000000000000000000000000000000000815260040162000bce90620022b9565b60405180910390fd5b60026000828152602001908152602001600020600083815260200190815260200160002060009054906101000a900473ffffffffffffffffffffffffffffffffffffffff1673ffffffffffffffffffffffffffffffffffffffff166343d8a1cf85856040518363ffffffff1660e01b815260040162000c5892919062002398565b600060405180830381600087803b15801562000c7357600080fd5b505af115801562000c88573d6000803e3d6000fd5b5050505050505050565b600033905090565b62000ca462001831565b600360008381526020019081526020016000206040518060a0016040529081600082015481526020016001820160009054906101000a900473ffffffffffffffffffffffffffffffffffffffff1673ffffffffffffffffffffffffffffffffffffffff1673ffffffffffffffffffffffffffffffffffffffff168152602001600282015481526020016003820160009054906101000a900473ffffffffffffffffffffffffffffffffffffffff1673ffffffffffffffffffffffffffffffffffffffff1673ffffffffffffffffffffffffffffffffffffffff1681526020016004820154815250509050919050565b600060026000848152602001908152602001600020600085815260200190815260200160002060009054906101000a900473ffffffffffffffffffffffffffffffffffffffff1673ffffffffffffffffffffffffffffffffffffffff1663a572064b33846040518363ffffffff1660e01b815260040162000e16929190620023d3565b602060405180830381865afa15801562000e34573d6000803e3d6000fd5b505050506040513d601f19601f8201168201806040525081019062000e5a919062002015565b90509392505050565b600060026000848152602001908152602001600020600085815260200190815260200160002060009054906101000a900473ffffffffffffffffffffffffffffffffffffffff1673ffffffffffffffffffffffffffffffffffffffff1663b9be1c66836040518263ffffffff1660e01b815260040162000ee4919062001d6e565b602060405180830381865afa15801562000f02573d6000803e3d6000fd5b505050506040513d601f19601f8201168201806040525081019062000f28919062002015565b90509392505050565b60008054906101000a900473ffffffffffffffffffffffffffffffffffffffff1681565b60026000828152602001908152602001600020600083815260200190815260200160002060009054906101000a900473ffffffffffffffffffffffffffffffffffffffff1673ffffffffffffffffffffffffffffffffffffffff166354ed17a8336040518263ffffffff1660e01b815260040162000fd4919062001a7b565b600060405180830381600087803b15801562000fef57600080fd5b505af115801562001004573d6000803e3d6000fd5b505050505050565b80600360008481526020019081526020016000206000015403620010ac57600360008381526020019081526020016000206000808201600090556001820160006101000a81549073ffffffffffffffffffffffffffffffffffffffff021916905560028201600090556003820160006101000a81549073ffffffffffffffffffffffffffffffffffffffff02191690556004820160009055505062001148565b806003600084815260200190815260200160002060020154036200114757600360008381526020019081526020016000206000808201600090556001820160006101000a81549073ffffffffffffffffffffffffffffffffffffffff021916905560028201600090556003820160006101000a81549073ffffffffffffffffffffffffffffffffffffffff0219169055600482016000905550505b5b5050565b60026000848152602001908152602001600020600085815260200190815260200160002060009054906101000a900473ffffffffffffffffffffffffffffffffffffffff1673ffffffffffffffffffffffffffffffffffffffff16637bdd4b803384846040518463ffffffff1660e01b8152600401620011cf9392919062002400565b600060405180830381600087803b158015620011ea57600080fd5b505af1158015620011ff573d6000803e3d6000fd5b5050505050505050565b3373ffffffffffffffffffffffffffffffffffffffff16600160009054906101000a900473ffffffffffffffffffffffffffffffffffffffff1673ffffffffffffffffffffffffffffffffffffffff16146200129c576040517f08c379a00000000000000000000000000000000000000000000000000000000081526004016200129390620022b9565b60405180910390fd5b6000600184620012ad91906200247a565b8383604051620012bd906200188c565b620012cb93929190620024db565b604051809103906000f080158015620012e8573d6000803e3d6000fd5b5090508060026000858152602001908152602001600020600086815260200190815260200160002060006101000a81548173ffffffffffffffffffffffffffffffffffffffff021916908373ffffffffffffffffffffffffffffffffffffffff16021790555050505050565b600160009054906101000a900473ffffffffffffffffffffffffffffffffffffffff1681565b600060036000838152602001908152602001600020600201549050919050565b60026020528160005260406000206020528060005260406000206000915091509054906101000a900473ffffffffffffffffffffffffffffffffffffffff1681565b600060036000858152602001908152602001600020600001541462001438576040517f08c379a00000000000000000000000000000000000000000000000000000000081526004016200142f90620020f1565b60405180910390fd5b60006003600085815260200190815260200160002060000154036200169d573373ffffffffffffffffffffffffffffffffffffffff166003600085815260200190815260200160002060030160009054906101000a900473ffffffffffffffffffffffffffffffffffffffff1673ffffffffffffffffffffffffffffffffffffffff1603620014fe576040517f08c379a0000000000000000000000000000000000000000000000000000000008152600401620014f59062002163565b60405180910390fd5b81600360008581526020019081526020016000206000018190555060036000848152602001908152602001600020600201546003600085815260200190815260200160002060000154036200158a576040517f08c379a00000000000000000000000000000000000000000000000000000000081526004016200158190620021d5565b60405180910390fd5b336003600085815260200190815260200160002060010160006101000a81548173ffffffffffffffffffffffffffffffffffffffff021916908373ffffffffffffffffffffffffffffffffffffffff16021790555060006003600085815260200190815260200160002060040154036200161f578060036000858152602001908152602001600020600401819055506200169c565b6000600360008581526020019081526020016000206004015411156200169b57806003600085815260200190815260200160002060040154146200169a576040517f08c379a0000000000000000000000000000000000000000000000000000000008152600401620016919062002247565b60405180910390fd5b5b5b5b505050565b60036020528060005260406000206000915090508060000154908060010160009054906101000a900473ffffffffffffffffffffffffffffffffffffffff16908060020154908060030160009054906101000a900473ffffffffffffffffffffffffffffffffffffffff16908060040154905085565b600060026000858152602001908152602001600020600084815260200190815260200160002060009054906101000a900473ffffffffffffffffffffffffffffffffffffffff1673ffffffffffffffffffffffffffffffffffffffff166371f1c09b836040518263ffffffff1660e01b815260040162001799919062001d6e565b602060405180830381865afa158015620017b7573d6000803e3d6000fd5b505050506040513d601f19601f82011682018060405250810190620017dd91906200205e565b90509392505050565b600060036000838152602001908152602001600020600401549050919050565b600060036000838152602001908152602001600020600001549050919050565b600081519050919050565b6040518060a0016040528060008152602001600073ffffffffffffffffffffffffffffffffffffffff16815260200160008152602001600073ffffffffffffffffffffffffffffffffffffffff168152602001600081525090565b612820806200251983390190565b6000604051905090565b600080fd5b600080fd5b6000819050919050565b620018c381620018ae565b8114620018cf57600080fd5b50565b600081359050620018e381620018b8565b92915050565b60008060408385031215620019035762001902620018a4565b5b60006200191385828601620018d2565b92505060206200192685828601620018d2565b9150509250929050565b60008115159050919050565b620019478162001930565b82525050565b60006020820190506200196460008301846200193c565b92915050565b600060208284031215620019835762001982620018a4565b5b60006200199384828501620018d2565b91505092915050565b620019a781620018ae565b82525050565b6000604082019050620019c460008301856200199c565b620019d360208301846200199c565b9392505050565b600080600060608486031215620019f657620019f5620018a4565b5b600062001a0686828701620018d2565b935050602062001a1986828701620018d2565b925050604062001a2c86828701620018d2565b9150509250925092565b600073ffffffffffffffffffffffffffffffffffffffff82169050919050565b600062001a638262001a36565b9050919050565b62001a758162001a56565b82525050565b600060208201905062001a92600083018462001a6a565b92915050565b600080fd5b6000601f19601f8301169050919050565b7f4e487b7100000000000000000000000000000000000000000000000000000000600052604160045260246000fd5b62001ae88262001a9d565b810181811067ffffffffffffffff8211171562001b0a5762001b0962001aae565b5b80604052505050565b600062001b1f6200189a565b905062001b2d828262001add565b919050565b600067ffffffffffffffff82111562001b505762001b4f62001aae565b5b602082029050602081019050919050565b600080fd5b600062001b7d62001b778462001b32565b62001b13565b9050808382526020820190506020840283018581111562001ba35762001ba262001b61565b5b835b8181101562001bd0578062001bbb8882620018d2565b84526020840193505060208101905062001ba5565b5050509392505050565b600082601f83011262001bf25762001bf162001a98565b5b813562001c0484826020860162001b66565b91505092915050565b6000806000806080858703121562001c2a5762001c29620018a4565b5b600085013567ffffffffffffffff81111562001c4b5762001c4a620018a9565b5b62001c598782880162001bda565b945050602085013567ffffffffffffffff81111562001c7d5762001c7c620018a9565b5b62001c8b8782880162001bda565b935050604062001c9e87828801620018d2565b925050606062001cb187828801620018d2565b91505092959194509250565b62001cc881620018ae565b82525050565b62001cd98162001a56565b82525050565b60a08201600082015162001cf7600085018262001cbd565b50602082015162001d0c602085018262001cce565b50604082015162001d21604085018262001cbd565b50606082015162001d36606085018262001cce565b50608082015162001d4b608085018262001cbd565b50505050565b600060a08201905062001d68600083018462001cdf565b92915050565b600060208201905062001d8560008301846200199c565b92915050565b6000819050919050565b600062001db662001db062001daa8462001a36565b62001d8b565b62001a36565b9050919050565b600062001dca8262001d95565b9050919050565b600062001dde8262001dbd565b9050919050565b62001df08162001dd1565b82525050565b600060208201905062001e0d600083018462001de5565b92915050565b6000806000806080858703121562001e305762001e2f620018a4565b5b600062001e4087828801620018d2565b945050602062001e5387828801620018d2565b935050604085013567ffffffffffffffff81111562001e775762001e76620018a9565b5b62001e858782880162001bda565b925050606085013567ffffffffffffffff81111562001ea95762001ea8620018a9565b5b62001eb78782880162001bda565b91505092959194509250565b62001ece8162001a56565b811462001eda57600080fd5b50565b60008135905062001eee8162001ec3565b92915050565b60008060006060848603121562001f105762001f0f620018a4565b5b600062001f2086828701620018d2565b935050602062001f3386828701620018d2565b925050604062001f468682870162001edd565b9150509250925092565b600060a08201905062001f6760008301886200199c565b62001f76602083018762001a6a565b62001f8560408301866200199c565b62001f94606083018562001a6a565b62001fa360808301846200199c565b9695505050505050565b60006020828403121562001fc65762001fc5620018a4565b5b600082013567ffffffffffffffff81111562001fe75762001fe6620018a9565b5b62001ff58482850162001bda565b91505092915050565b6000815190506200200f81620018b8565b92915050565b6000602082840312156200202e576200202d620018a4565b5b60006200203e8482850162001ffe565b91505092915050565b600081519050620020588162001ec3565b92915050565b600060208284031215620020775762002076620018a4565b5b6000620020878482850162002047565b91505092915050565b600082825260208201905092915050565b7f616c726561647920706c61636564000000000000000000000000000000000000600082015250565b6000620020d9600e8362002090565b9150620020e682620020a1565b602082019050919050565b600060208201905081810360008301526200210c81620020ca565b9050919050565b7f596f75206861766520616c7265616479207369676e6564000000000000000000600082015250565b60006200214b60178362002090565b9150620021588262002113565b602082019050919050565b600060208201905081810360008301526200217e816200213c565b9050919050565b7f416c7265616479205369676e6564000000000000000000000000000000000000600082015250565b6000620021bd600e8362002090565b9150620021ca8262002185565b602082019050919050565b60006020820190508181036000830152620021f081620021ae565b9050919050565b7f506c656173652053656c6563742054686520457861637420416d6f756e742020600082015250565b60006200222f60208362002090565b91506200223c82620021f7565b602082019050919050565b60006020820190508181036000830152620022628162002220565b9050919050565b7f6572726f722d6f6e6c792d6f776e657200000000000000000000000000000000600082015250565b6000620022a160108362002090565b9150620022ae8262002269565b602082019050919050565b60006020820190508181036000830152620022d48162002292565b9050919050565b600081519050919050565b600082825260208201905092915050565b6000819050602082019050919050565b600062002315838362001cbd565b60208301905092915050565b6000602082019050919050565b60006200233b82620022db565b620023478185620022e6565b93506200235483620022f7565b8060005b838110156200238b5781516200236f888262002307565b97506200237c8362002321565b92505060018101905062002358565b5085935050505092915050565b60006040820190508181036000830152620023b481856200232e565b90508181036020830152620023ca81846200232e565b90509392505050565b6000604082019050620023ea600083018562001a6a565b620023f960208301846200199c565b9392505050565b600060608201905062002417600083018662001a6a565b81810360208301526200242b81856200232e565b905081810360408301526200244181846200232e565b9050949350505050565b7f4e487b7100000000000000000000000000000000000000000000000000000000600052601160045260246000fd5b60006200248782620018ae565b91506200249483620018ae565b9250817fffffffffffffffffffffffffffffffffffffffffffffffffffffffffffffffff0483118215151615620024d057620024cf6200244b565b5b828202905092915050565b6000606082019050620024f260008301866200199c565b6200250160208301856200199c565b62002510604083018462001a6a565b94935050505056fe608060405273d9145cce52d386f254917e481eb44e9943f39138600160006101000a81548173ffffffffffffffffffffffffffffffffffffffff021916908373ffffffffffffffffffffffffffffffffffffffff16021790555073b27a31f1b0af2946b7f582768f03239b1ec07c2c600260006101000a81548173ffffffffffffffffffffffffffffffffffffffff021916908373ffffffffffffffffffffffffffffffffffffffff160217905550348015620000bb57600080fd5b5060405162002820380380620028208339818101604052810190620000e19190620002e4565b33600760006101000a81548173ffffffffffffffffffffffffffffffffffffffff021916908373ffffffffffffffffffffffffffffffffffffffff1602179055506000831162000168576040517f08c379a00000000000000000000000000000000000000000000000000000000081526004016200015f90620003a1565b60405180910390fd5b8260088190555081600981905550600160095403620001c757806000806101000a81548173ffffffffffffffffffffffffffffffffffffffff021916908373ffffffffffffffffffffffffffffffffffffffff16021790555062000236565b6002600954036200023557600260009054906101000a900473ffffffffffffffffffffffffffffffffffffffff166000806101000a81548173ffffffffffffffffffffffffffffffffffffffff021916908373ffffffffffffffffffffffffffffffffffffffff1602179055505b5b505050620003c3565b600080fd5b6000819050919050565b620002598162000244565b81146200026557600080fd5b50565b60008151905062000279816200024e565b92915050565b600073ffffffffffffffffffffffffffffffffffffffff82169050919050565b6000620002ac826200027f565b9050919050565b620002be816200029f565b8114620002ca57600080fd5b50565b600081519050620002de81620002b3565b92915050565b6000806000606084860312156200030057620002ff6200023f565b5b6000620003108682870162000268565b9350506020620003238682870162000268565b92505060406200033686828701620002cd565b9150509250925092565b600082825260208201905092915050565b7f496e76616c696420616d6f756e74000000000000000000000000000000000000600082015250565b600062000389600e8362000340565b9150620003968262000351565b602082019050919050565b60006020820190508181036000830152620003bc816200037a565b9050919050565b61244d80620003d36000396000f3fe608060405234801561001057600080fd5b50600436106100f55760003560e01c806383197ef011610097578063b12ac46611610066578063b12ac46614610284578063b9be1c66146102b4578063babcc539146102e4578063d385891e14610314576100f5565b806383197ef0146101fc5780638da5cb5b14610206578063a2669eeb14610224578063a572064b14610254576100f5565b806354ed17a8116100d357806354ed17a814610164578063636606c71461018057806371f1c09b146101b05780637bdd4b80146101e0576100f5565b80634129b2c9146100fa57806343d8a1cf1461012a5780634b60ce7714610146575b600080fd5b610114600480360381019061010f9190611ae2565b610344565b6040516101219190611b50565b60405180910390f35b610144600480360381019061013f9190611cc4565b61038c565b005b61014e610577565b60405161015b9190611d9b565b60405180910390f35b61017e60048036038101906101799190611de2565b61059b565b005b61019a60048036038101906101959190611e0f565b610869565b6040516101a79190611e5e565b60405180910390f35b6101ca60048036038101906101c59190611ae2565b61088e565b6040516101d79190611b50565b60405180910390f35b6101fa60048036038101906101f59190611e79565b6108d6565b005b610204610aa7565b005b61020e610b72565b60405161021b9190611b50565b60405180910390f35b61023e60048036038101906102399190611ae2565b610b98565b60405161024b9190611b50565b60405180910390f35b61026e60048036038101906102699190611e0f565b610bd7565b60405161027b9190611e5e565b60405180910390f35b61029e60048036038101906102999190611ae2565b610d55565b6040516102ab9190611e5e565b60405180910390f35b6102ce60048036038101906102c99190611ae2565b610d79565b6040516102db9190611e5e565b60405180910390f35b6102fe60048036038101906102f99190611de2565b610da1565b60405161030b9190611e5e565b60405180910390f35b61032e60048036038101906103299190611ae2565b610dfb565b60405161033b9190611b50565b60405180910390f35b60006004828154811061035a57610359611f04565b5b9060005260206000200160009054906101000a900473ffffffffffffffffffffffffffffffffffffffff169050919050565b3373ffffffffffffffffffffffffffffffffffffffff16600760009054906101000a900473ffffffffffffffffffffffffffffffffffffffff1673ffffffffffffffffffffffffffffffffffffffff161461041c576040517f08c379a000000000000000000000000000000000000000000000000000000000815260040161041390611f90565b60405180910390fd5b600080600090505b6004805490508110156105695760005b8451811015610528578381815181106104505761044f611f04565b5b602002602001015160036000600485815481106104705761046f611f04565b5b9060005260206000200160009054906101000a900473ffffffffffffffffffffffffffffffffffffffff1673ffffffffffffffffffffffffffffffffffffffff1673ffffffffffffffffffffffffffffffffffffffff16815260200190815260200160002060008784815181106104ea576104e9611f04565b5b60200260200101518152602001908152602001600020540361051557828061051190611fdf565b9350505b808061052090611fdf565b915050610434565b50600682908060018154018082558091505060019003906000526020600020016000909190919091505560009150808061056190611fdf565b915050610424565b50610572610e3a565b505050565b60008054906101000a900473ffffffffffffffffffffffffffffffffffffffff1681565b3373ffffffffffffffffffffffffffffffffffffffff16600760009054906101000a900473ffffffffffffffffffffffffffffffffffffffff1673ffffffffffffffffffffffffffffffffffffffff161461062b576040517f08c379a000000000000000000000000000000000000000000000000000000000815260040161062290611f90565b60405180910390fd5b6001600360008373ffffffffffffffffffffffffffffffffffffffff1673ffffffffffffffffffffffffffffffffffffffff168152602001908152602001600020600080815260200190815260200160002054036106be576040517f08c379a00000000000000000000000000000000000000000000000000000000081526004016106b590612073565b60405180910390fd5b60008060009054906101000a900473ffffffffffffffffffffffffffffffffffffffff1673ffffffffffffffffffffffffffffffffffffffff166323b872dd83306008546040518463ffffffff1660e01b815260040161072093929190612093565b6020604051808303816000875af115801561073f573d6000803e3d6000fd5b505050506040513d601f19601f820116820180604052508101906107639190612102565b905060011515811515146107ac576040517f08c379a00000000000000000000000000000000000000000000000000000000081526004016107a39061217b565b60405180910390fd5b6004829080600181540180825580915050600190039060005260206000200160009091909190916101000a81548173ffffffffffffffffffffffffffffffffffffffff021916908373ffffffffffffffffffffffffffffffffffffffff1602179055506001600360008473ffffffffffffffffffffffffffffffffffffffff1673ffffffffffffffffffffffffffffffffffffffff1681526020019081526020016000206000808152602001908152602001600020819055505050565b6003602052816000526040600020602052806000526040600020600091509150505481565b6000600582815481106108a4576108a3611f04565b5b9060005260206000200160009054906101000a900473ffffffffffffffffffffffffffffffffffffffff169050919050565b3373ffffffffffffffffffffffffffffffffffffffff16600760009054906101000a900473ffffffffffffffffffffffffffffffffffffffff1673ffffffffffffffffffffffffffffffffffffffff1614610966576040517f08c379a000000000000000000000000000000000000000000000000000000000815260040161095d90611f90565b60405180910390fd5b6001600360008573ffffffffffffffffffffffffffffffffffffffff1673ffffffffffffffffffffffffffffffffffffffff168152602001908152602001600020600080815260200190815260200160002054146109f9576040517f08c379a00000000000000000000000000000000000000000000000000000000081526004016109f09061220d565b60405180910390fd5b60005b8251811015610aa157818181518110610a1857610a17611f04565b5b6020026020010151600360008673ffffffffffffffffffffffffffffffffffffffff1673ffffffffffffffffffffffffffffffffffffffff1681526020019081526020016000206000858481518110610a7457610a73611f04565b5b60200260200101518152602001908152602001600020819055508080610a9990611fdf565b9150506109fc565b50505050565b3373ffffffffffffffffffffffffffffffffffffffff16600760009054906101000a900473ffffffffffffffffffffffffffffffffffffffff1673ffffffffffffffffffffffffffffffffffffffff1614610b37576040517f08c379a0000000000000000000000000000000000000000000000000000000008152600401610b2e90611f90565b60405180910390fd5b600760009054906101000a900473ffffffffffffffffffffffffffffffffffffffff1673ffffffffffffffffffffffffffffffffffffffff16ff5b600760009054906101000a900473ffffffffffffffffffffffffffffffffffffffff1681565b60048181548110610ba857600080fd5b906000526020600020016000915054906101000a900473ffffffffffffffffffffffffffffffffffffffff1681565b60003373ffffffffffffffffffffffffffffffffffffffff16600760009054906101000a900473ffffffffffffffffffffffffffffffffffffffff1673ffffffffffffffffffffffffffffffffffffffff1614610c69576040517f08c379a0000000000000000000000000000000000000000000000000000000008152600401610c6090611f90565b60405180910390fd5b6001600360008573ffffffffffffffffffffffffffffffffffffffff1673ffffffffffffffffffffffffffffffffffffffff16815260200190815260200160002060008081526020019081526020016000205414610cfc576040517f08c379a0000000000000000000000000000000000000000000000000000000008152600401610cf39061220d565b60405180910390fd5b600360008473ffffffffffffffffffffffffffffffffffffffff1673ffffffffffffffffffffffffffffffffffffffff168152602001908152602001600020600083815260200190815260200160002054905092915050565b60068181548110610d6557600080fd5b906000526020600020016000915090505481565b600060068281548110610d8f57610d8e611f04565b5b90600052602060002001549050919050565b6000600360008373ffffffffffffffffffffffffffffffffffffffff1673ffffffffffffffffffffffffffffffffffffffff1681526020019081526020016000206000808152602001908152602001600020549050919050565b60058181548110610e0b57600080fd5b906000526020600020016000915054906101000a900473ffffffffffffffffffffffffffffffffffffffff1681565b3373ffffffffffffffffffffffffffffffffffffffff16600760009054906101000a900473ffffffffffffffffffffffffffffffffffffffff1673ffffffffffffffffffffffffffffffffffffffff1614610eca576040517f08c379a0000000000000000000000000000000000000000000000000000000008152600401610ec190611f90565b60405180910390fd5b600060068054905090506000808267ffffffffffffffff811115610ef157610ef0611b81565b5b604051908082528060200260200182016040528015610f1f5781602001602082028036833780820191505090505b50905060008367ffffffffffffffff811115610f3e57610f3d611b81565b5b604051908082528060200260200182016040528015610f6c5781602001602082028036833780820191505090505b50905060005b848110156110575760068181548110610f8e57610f8d611f04565b5b9060005260206000200154838281518110610fac57610fab611f04565b5b60200260200101818152505060048181548110610fcc57610fcb611f04565b5b9060005260206000200160009054906101000a900473ffffffffffffffffffffffffffffffffffffffff1682828151811061100a57611009611f04565b5b602002602001019073ffffffffffffffffffffffffffffffffffffffff16908173ffffffffffffffffffffffffffffffffffffffff1681525050808061104f90611fdf565b915050610f72565b6000600286611066919061222d565b67ffffffffffffffff81111561107f5761107e611b81565b5b6040519080825280602002602001820160405280156110ad5781602001602082028036833780820191505090505b50905060006001905060008282815181106110cb576110ca611f04565b5b6020026020010181815250506001816110e4919061222d565b90506001876110f39190612283565b82828151811061110657611105611f04565b5b6020026020010181815250505b600081111561158d57600082828151811061113157611130611f04565b5b602002602001015190506001826111489190612283565b9150600083838151811061115f5761115e611f04565b5b602002602001015190506001836111769190612283565b925080945060008783815181106111905761118f611f04565b5b6020026020010151905060008290505b8381101561133657818982815181106111bc576111bb611f04565b5b602002602001015111611323578881815181106111dc576111db611f04565b5b60200260200101518988815181106111f7576111f6611f04565b5b60200260200101518a898151811061121257611211611f04565b5b602002602001018b848151811061122c5761122b611f04565b5b6020026020010182815250828152505050600088888151811061125257611251611f04565b5b6020026020010151905088828151811061126f5761126e611f04565b5b602002602001015189898151811061128a57611289611f04565b5b602002602001019073ffffffffffffffffffffffffffffffffffffffff16908173ffffffffffffffffffffffffffffffffffffffff1681525050808983815181106112d8576112d7611f04565b5b602002602001019073ffffffffffffffffffffffffffffffffffffffff16908173ffffffffffffffffffffffffffffffffffffffff168152505060018861131f919061222d565b9750505b808061132e90611fdf565b9150506111a0565b5087838151811061134a57611349611f04565b5b602002602001015188878151811061136557611364611f04565b5b60200260200101518988815181106113805761137f611f04565b5b602002602001018a868151811061139a57611399611f04565b5b602002602001018281525082815250505060008787815181106113c0576113bf611f04565b5b602002602001015190508784815181106113dd576113dc611f04565b5b60200260200101518888815181106113f8576113f7611f04565b5b602002602001019073ffffffffffffffffffffffffffffffffffffffff16908173ffffffffffffffffffffffffffffffffffffffff16815250508088858151811061144657611445611f04565b5b602002602001019073ffffffffffffffffffffffffffffffffffffffff16908173ffffffffffffffffffffffffffffffffffffffff16815250506000879050600184611492919061222d565b811115611504576001866114a6919061222d565b9550838787815181106114bc576114bb611f04565b5b6020026020010181815250506001866114d5919061222d565b95506001816114e49190612283565b8787815181106114f7576114f6611f04565b5b6020026020010181815250505b84600182611512919061222d565b101561158357600186611525919061222d565b9550600181611534919061222d565b87878151811061154757611546611f04565b5b602002602001018181525050600186611560919061222d565b95508487878151811061157657611575611f04565b5b6020026020010181815250505b5050505050611113565b60018761159a9190612283565b92505b60008311156117c357846001846115b49190612283565b815181106115c5576115c4611f04565b5b60200260200101518584815181106115e0576115df611f04565b5b60200260200101510361170757600584848151811061160257611601611f04565b5b60200260200101519080600181540180825580915050600190039060005260206000200160009091909190916101000a81548173ffffffffffffffffffffffffffffffffffffffff021916908373ffffffffffffffffffffffffffffffffffffffff16021790555060058460018561167a9190612283565b8151811061168b5761168a611f04565b5b60200260200101519080600181540180825580915050600190039060005260206000200160009091909190916101000a81548173ffffffffffffffffffffffffffffffffffffffff021916908373ffffffffffffffffffffffffffffffffffffffff160217905550600286611700919061222d565b95506117b0565b600086036117ab57858061171a90611fdf565b96505060058460018561172d9190612283565b8151811061173e5761173d611f04565b5b60200260200101519080600181540180825580915050600190039060005260206000200160009091909190916101000a81548173ffffffffffffffffffffffffffffffffffffffff021916908373ffffffffffffffffffffffffffffffffffffffff1602179055506117c3565b6117c3565b82806117bb906122b7565b93505061159d565b600092505b86831015611897578483815181106117e3576117e2611f04565b5b6020026020010151600684815481106117ff576117fe611f04565b5b90600052602060002001819055508383815181106118205761181f611f04565b5b60200260200101516004848154811061183c5761183b611f04565b5b9060005260206000200160006101000a81548173ffffffffffffffffffffffffffffffffffffffff021916908373ffffffffffffffffffffffffffffffffffffffff160217905550828061188f90611fdf565b9350506117c8565b60008660008054906101000a900473ffffffffffffffffffffffffffffffffffffffff1673ffffffffffffffffffffffffffffffffffffffff166370a08231306040518263ffffffff1660e01b81526004016118f39190611b50565b602060405180830381865afa158015611910573d6000803e3d6000fd5b505050506040513d601f19601f8201168201806040525081019061193491906122f5565b61193e9190612351565b9050600093505b600580549050841015611a8e5760008060009054906101000a900473ffffffffffffffffffffffffffffffffffffffff1673ffffffffffffffffffffffffffffffffffffffff1663a9059cbb600587815481106119a5576119a4611f04565b5b9060005260206000200160009054906101000a900473ffffffffffffffffffffffffffffffffffffffff16846040518363ffffffff1660e01b81526004016119ee929190612382565b6020604051808303816000875af1158015611a0d573d6000803e3d6000fd5b505050506040513d601f19601f82011682018060405250810190611a319190612102565b90506001151581151514611a7a576040517f08c379a0000000000000000000000000000000000000000000000000000000008152600401611a71906123f7565b60405180910390fd5b508380611a8690611fdf565b945050611945565b5050505050505050565b6000604051905090565b600080fd5b600080fd5b6000819050919050565b611abf81611aac565b8114611aca57600080fd5b50565b600081359050611adc81611ab6565b92915050565b600060208284031215611af857611af7611aa2565b5b6000611b0684828501611acd565b91505092915050565b600073ffffffffffffffffffffffffffffffffffffffff82169050919050565b6000611b3a82611b0f565b9050919050565b611b4a81611b2f565b82525050565b6000602082019050611b656000830184611b41565b92915050565b600080fd5b6000601f19601f8301169050919050565b7f4e487b7100000000000000000000000000000000000000000000000000000000600052604160045260246000fd5b611bb982611b70565b810181811067ffffffffffffffff82111715611bd857611bd7611b81565b5b80604052505050565b6000611beb611a98565b9050611bf78282611bb0565b919050565b600067ffffffffffffffff821115611c1757611c16611b81565b5b602082029050602081019050919050565b600080fd5b6000611c40611c3b84611bfc565b611be1565b90508083825260208201905060208402830185811115611c6357611c62611c28565b5b835b81811015611c8c5780611c788882611acd565b845260208401935050602081019050611c65565b5050509392505050565b600082601f830112611cab57611caa611b6b565b5b8135611cbb848260208601611c2d565b91505092915050565b60008060408385031215611cdb57611cda611aa2565b5b600083013567ffffffffffffffff811115611cf957611cf8611aa7565b5b611d0585828601611c96565b925050602083013567ffffffffffffffff811115611d2657611d25611aa7565b5b611d3285828601611c96565b9150509250929050565b6000819050919050565b6000611d61611d5c611d5784611b0f565b611d3c565b611b0f565b9050919050565b6000611d7382611d46565b9050919050565b6000611d8582611d68565b9050919050565b611d9581611d7a565b82525050565b6000602082019050611db06000830184611d8c565b92915050565b611dbf81611b2f565b8114611dca57600080fd5b50565b600081359050611ddc81611db6565b92915050565b600060208284031215611df857611df7611aa2565b5b6000611e0684828501611dcd565b91505092915050565b60008060408385031215611e2657611e25611aa2565b5b6000611e3485828601611dcd565b9250506020611e4585828601611acd565b9150509250929050565b611e5881611aac565b82525050565b6000602082019050611e736000830184611e4f565b92915050565b600080600060608486031215611e9257611e91611aa2565b5b6000611ea086828701611dcd565b935050602084013567ffffffffffffffff811115611ec157611ec0611aa7565b5b611ecd86828701611c96565b925050604084013567ffffffffffffffff811115611eee57611eed611aa7565b5b611efa86828701611c96565b9150509250925092565b7f4e487b7100000000000000000000000000000000000000000000000000000000600052603260045260246000fd5b600082825260208201905092915050565b7f6572726f722d6f6e6c792d6f776e657200000000000000000000000000000000600082015250565b6000611f7a601083611f33565b9150611f8582611f44565b602082019050919050565b60006020820190508181036000830152611fa981611f6d565b9050919050565b7f4e487b7100000000000000000000000000000000000000000000000000000000600052601160045260246000fd5b6000611fea82611aac565b91507fffffffffffffffffffffffffffffffffffffffffffffffffffffffffffffffff820361201c5761201b611fb0565b5b600182019050919050565b7f596f752061726520616c7265616479206c697374656400000000000000000000600082015250565b600061205d601683611f33565b915061206882612027565b602082019050919050565b6000602082019050818103600083015261208c81612050565b9050919050565b60006060820190506120a86000830186611b41565b6120b56020830185611b41565b6120c26040830184611e4f565b949350505050565b60008115159050919050565b6120df816120ca565b81146120ea57600080fd5b50565b6000815190506120fc816120d6565b92915050565b60006020828403121561211857612117611aa2565b5b6000612126848285016120ed565b91505092915050565b7f5061796d656e74204661696c6564000000000000000000000000000000000000600082015250565b6000612165600e83611f33565b91506121708261212f565b602082019050919050565b6000602082019050818103600083015261219481612158565b9050919050565b7f596f7520617265206e6f74206c697374656420696e2062657474696e67206c6960008201527f7374000000000000000000000000000000000000000000000000000000000000602082015250565b60006121f7602283611f33565b91506122028261219b565b604082019050919050565b60006020820190508181036000830152612226816121ea565b9050919050565b600061223882611aac565b915061224383611aac565b9250827fffffffffffffffffffffffffffffffffffffffffffffffffffffffffffffffff0382111561227857612277611fb0565b5b828201905092915050565b600061228e82611aac565b915061229983611aac565b9250828210156122ac576122ab611fb0565b5b828203905092915050565b60006122c282611aac565b9150600082036122d5576122d4611fb0565b5b600182039050919050565b6000815190506122ef81611ab6565b92915050565b60006020828403121561230b5761230a611aa2565b5b6000612319848285016122e0565b91505092915050565b7f4e487b7100000000000000000000000000000000000000000000000000000000600052601260045260246000fd5b600061235c82611aac565b915061236783611aac565b92508261237757612376612322565b5b828204905092915050565b60006040820190506123976000830185611b41565b6123a46020830184611e4f565b9392505050565b7f626164207061796d656e74000000000000000000000000000000000000000000600082015250565b60006123e1600b83611f33565b91506123ec826123ab565b602082019050919050565b60006020820190508181036000830152612410816123d4565b905091905056fea2646970667358221220260a488a9c2a826ea0e4d9fd98032be73cd4c40a3c7829c2078202920ef30c7864736f6c634300080e0033a2646970667358221220c01612fa56e71e035ba219f8c3bbf2b7d614cef57098053effbc1d7b9eaf339264736f6c634300080e0033",
  "immutableReferences": {},
  "source": "// SPDX-License-Identifier: MIT\r\npragma solidity >=0.4.22 <0.9.0;\r\nimport \"@openzeppelin/contracts/token/ERC20/IERC20.sol\";\r\n\r\n\r\n\r\ncontract Pool{\r\n\r\n\r\n    IERC20 public projectToken;\r\n\r\n    address USDTTokenAddres = 0xd9145CCE52D386f254917e481eB44e9943F39138;\r\n    address BSDTTokenAddres = 0xb27A31f1b0AF2946B7F582768f03239b1eC07c2c;\r\n\r\n    \r\n\r\n  //          address       MATCHID=>Choice\r\n    mapping(address=>mapping(uint=>uint)) public ChoiceSheet;  // make it private\r\n    address[] public BetterAddresses; // make it private\r\n\r\n    address[] public WinnersAddresses; // make it private\r\n\r\n  \r\n    uint[] public Points;  // make it private\r\n    address public owner;\r\n    uint PoolBetAmount;\r\n    uint PoolCurrency;\r\n    \r\n    constructor(uint amount, uint currency, address tokenAddr){\r\n        owner = msg.sender;\r\n        require(amount>0, \"Invalid amount\");\r\n        PoolBetAmount = amount;\r\n        PoolCurrency = currency;\r\n        if(PoolCurrency==1){\r\n            projectToken = IERC20(tokenAddr); // make it dynamic this is for testing for now\r\n        }else if(PoolCurrency==2){\r\n            projectToken = IERC20(BSDTTokenAddres);\r\n        }\r\n    }\r\n\r\n    modifier onlyOwner(){\r\n        require(owner == msg.sender, \"error-only-owner\");\r\n        _;\r\n    }\r\n\r\n    \r\n\r\n\r\n\r\n    function isAllowed(address BetterAddress) view public returns(uint){\r\n        return ChoiceSheet[BetterAddress][0];\r\n    }\r\n\r\n\r\n\r\n    function AddBetterAddress(address BetterAddress) external  onlyOwner   {\r\n        require(ChoiceSheet[BetterAddress][0] != 1, \"You are already listed\");\r\n        bool success = projectToken.transferFrom(BetterAddress, address(this), PoolBetAmount);\r\n        require(success == true, \"Payment Failed\");\r\n        BetterAddresses.push(BetterAddress);\r\n        ChoiceSheet[BetterAddress][0] = 1;\r\n    }\r\n\r\n    function AddChoice(address BetterAddress, uint[] memory matchID, uint[] memory teamID) external onlyOwner {\r\n        require(ChoiceSheet[BetterAddress][0] == 1, \"You are not listed in betting list\");\r\n        for(uint i = 0; i < matchID.length ; i++){\r\n            ChoiceSheet[BetterAddress][matchID[i]] = teamID[i];\r\n        }\r\n        \r\n    }\r\n\r\n    function GetChoice(address BetterAddress, uint matchID)  external view onlyOwner returns(uint) {\r\n        require(ChoiceSheet[BetterAddress][0] == 1, \"You are not listed in betting list\");\r\n        return ChoiceSheet[BetterAddress][matchID];\r\n    }\r\n\r\n    function DistributeRewards(uint[] memory MatchIDs, uint[] memory WinningTeamIDs) external onlyOwner{\r\n        uint pts;\r\n        for (uint i = 0; i < BetterAddresses.length; i++) \r\n        {\r\n            for (uint j = 0; j < MatchIDs.length; j++) \r\n            {\r\n                if(ChoiceSheet[BetterAddresses[i]][MatchIDs[j]] == WinningTeamIDs[j]){\r\n                    pts++;\r\n                }\r\n            }\r\n            Points.push(pts);\r\n            pts = 0;   \r\n        }\r\n        ChooseWinners();\r\n    }\r\n\r\n    function ChooseWinners() internal onlyOwner{\r\n        uint n = Points.length;\r\n        uint NoOfWinners;\r\n        uint[] memory arr = new uint[](n);                // score\r\n        address[] memory addr = new address[](n);        //  better addresses \r\n\r\n        uint i;\r\n\r\n        for(i=0; i<n; i++) {\r\n            arr[i] = Points[i];\r\n            addr[i] = BetterAddresses[i];\r\n        }\r\n\r\n        uint[] memory stack = new uint[](n+2);\r\n\r\n        //Push initial lower and higher bound\r\n        uint top = 1;\r\n        stack[top] = 0;\r\n        top = top + 1;\r\n        stack[top] = n-1;\r\n\r\n        //Keep popping from stack while is not empty\r\n        while (top > 0) {\r\n\r\n            uint h = stack[top];\r\n            top = top - 1;\r\n            uint l = stack[top];\r\n            top = top - 1;\r\n\r\n            i = l;\r\n            uint x = arr[h];\r\n\r\n            for(uint j=l; j<h; j++){\r\n                if (arr[j] <= x) {\r\n                    (arr[i], arr[j]) = (arr[j],arr[i]);\r\n                    address temper = addr[i];\r\n                    addr[i] = addr[j];\r\n                    addr[j] = temper;\r\n                    // (addr[i], addr[j]) = (addr[j],addr[i]);\r\n                    i = i + 1;\r\n                }\r\n            }\r\n            (arr[i], arr[h]) = (arr[h],arr[i]);\r\n            address temper123 = addr[i];\r\n            addr[i] = addr[h];\r\n            addr[h] = temper123;\r\n      \r\n            uint p = i;\r\n\r\n            //Push left side to stack\r\n            if (p > l + 1) {\r\n                top = top + 1;\r\n                stack[top] = l;\r\n                top = top + 1;\r\n                stack[top] = p - 1;\r\n            }\r\n\r\n            //Push right side to stack\r\n            if (p+1 < h) {\r\n                top = top + 1;\r\n                stack[top] = p + 1;\r\n                top = top + 1;\r\n                stack[top] = h;\r\n            }\r\n        }\r\n\r\n        for (i=n-1; i>0; i--) {\r\n            if(arr[i] == arr[i-1]){\r\n                WinnersAddresses.push(addr[i]);\r\n                WinnersAddresses.push(addr[i-1]);\r\n                NoOfWinners = NoOfWinners + 2;\r\n            }else if(NoOfWinners==0){\r\n                NoOfWinners++;\r\n                WinnersAddresses.push(addr[i-1]);\r\n                break;\r\n            }\r\n            else{\r\n                break;\r\n            }\r\n        }\r\n\r\n        for(i=0; i<n; i++) {\r\n            Points[i] = arr[i];\r\n            BetterAddresses[i] = addr[i];\r\n        }\r\n\r\n        uint amountPerWinner = projectToken.balanceOf(address(this)) / NoOfWinners;\r\n\r\n        for (i=0; i < WinnersAddresses.length; i++) {\r\n            bool success = projectToken.transfer(WinnersAddresses[i], amountPerWinner);\r\n            require(success==true, \"bad payment\");\r\n        }\r\n        // destroy();\r\n        \r\n    }\r\n\r\n    \r\n    \r\n    function destroy() public onlyOwner{\r\n        selfdestruct(payable(owner));\r\n    }\r\n\r\n\r\n//--------------------------------TESTING PURPOSE------------------------------------------------//\r\n    function getwinnerAddress(uint i) external view returns(address){\r\n        return WinnersAddresses[i];\r\n    }\r\n\r\n    function getWinner(uint i) view public returns(address){\r\n        return BetterAddresses[i];\r\n    }\r\n\r\n    function getWinnerScore(uint i) view public returns(uint){\r\n        return Points[i];\r\n    }\r\n\r\n    \r\n\r\n\r\n    \r\n}\r\n    \r\n\r\ncontract AdminPanel {\r\n\r\n    IERC20 public projectToken;\r\n\r\n    address public owner;\r\n    \r\n    mapping(uint=>mapping(uint=>address)) public PaymentMethod; // pools addresses\r\n\r\n    constructor(){\r\n        owner = msg.sender;\r\n    }\r\n\r\n    modifier onlyOwner(){\r\n        require(owner == msg.sender, \"error-only-owner\");\r\n        _;\r\n    }\r\n\r\n    \r\n    // ------------------------------- PUBLIC POOLS --------------------------------- //\r\n\r\n    function createPool(uint amount, uint currency, address TokenAddr) onlyOwner public{       // only owner can create pool\r\n        Pool pool = new Pool(amount*(1**8), currency, TokenAddr);\r\n        PaymentMethod[currency][amount] = address(pool); //saving pool address by currency and amount\r\n    }\r\n\r\n    function JoinPool(uint amount, uint currency) public {                  // to join  pool\r\n        Pool(PaymentMethod[currency][amount]).AddBetterAddress(msg.sender);\r\n    }\r\n\r\n\r\n    function addChoice(uint amount, uint currency, uint[] memory MatchID, uint[] memory TeamID) public { // adding choice\r\n        Pool(PaymentMethod[currency][amount]).AddChoice(msg.sender, MatchID, TeamID);\r\n    }\r\n\r\n    function getChoices(uint amount, uint currency, uint MatchID) public view returns (uint) {  // anyone can check choice of anyone\r\n        return Pool(PaymentMethod[currency][amount]).GetChoice(msg.sender, MatchID);\r\n    }\r\n    \r\n    function DistributeRewards(uint[] memory matchIDs, uint[] memory winningTeamIds, uint amount, uint currency) public onlyOwner {          // distribute rewards\r\n        Pool(PaymentMethod[currency][amount]).DistributeRewards(matchIDs, winningTeamIds);\r\n    }\r\n\r\n    function isAllowed(uint amount, uint currency) public view returns(bool){        //check if current user is allowed or not\r\n        if(Pool(PaymentMethod[currency][amount]).isAllowed(msg.sender)==1) {\r\n            return true;\r\n        }else{ \r\n        return false;\r\n        }\r\n    }\r\n\r\n    //----------------------------------------PUBLIC POOLS TESTING FUNCTIONS---------------------------------------------------------//\r\n\r\n    function getWinner(uint amount, uint currency, uint i) view public returns(address){   // testing functions\r\n        return Pool(PaymentMethod[currency][amount]).getWinner(i);\r\n    }\r\n\r\n    function getWinnerscore(uint amount, uint currency, uint i) view public returns(uint){   // testing functions\r\n        return Pool(PaymentMethod[currency][amount]).getWinnerScore(i);\r\n    }\r\n\r\n    function getWinnerAddress(uint amount, uint currency, uint i) public view returns(address) {   // testing functions\r\n        return Pool(PaymentMethod[amount][currency]).getwinnerAddress(i);\r\n    }\r\n\r\n    function CheckArray(uint[] memory MatchIDs) pure public returns(uint){\r\n        return MatchIDs.length;\r\n    }\r\n\r\n    //----------------------------------------- 1 V 1 POOLS Functions ---------------------------------------------------------------//\r\n\r\n    struct Match{\r\n        uint User1Choice;\r\n        address User1Addr;\r\n        uint User2Choice;\r\n        address User2Addr;\r\n        uint amount;\r\n    }\r\n\r\n    mapping(uint => Match) public MatchDetails;\r\n\r\n\r\n    function AddMatchLeft(uint MatchID, uint Choice, uint amount) public{\r\n        require(MatchDetails[MatchID].User1Choice==0, \"already placed\");\r\n        if(MatchDetails[MatchID].User1Choice==0){\r\n            require(MatchDetails[MatchID].User2Addr != msg.sender, \"You have already signed\");\r\n            MatchDetails[MatchID].User1Choice = Choice;\r\n            require(MatchDetails[MatchID].User1Choice != MatchDetails[MatchID].User2Choice, \"Already Signed\");\r\n            MatchDetails[MatchID].User1Addr = msg.sender;\r\n            if(MatchDetails[MatchID].amount==0){\r\n                MatchDetails[MatchID].amount = amount;\r\n            }else if(MatchDetails[MatchID].amount>0){\r\n                require(MatchDetails[MatchID].amount == amount, \"Please Select The Exact Amount  \");\r\n            }\r\n        }\r\n    }\r\n\r\n    function AddMatchRight(uint MatchID, uint Choice, uint amount) public {\r\n        require(MatchDetails[MatchID].User2Choice==0, \"already placed\");\r\n        if(MatchDetails[MatchID].User2Choice==0){\r\n            require(MatchDetails[MatchID].User1Addr != msg.sender, \"You have already signed\");\r\n            MatchDetails[MatchID].User2Choice = Choice;\r\n            require(MatchDetails[MatchID].User1Choice != MatchDetails[MatchID].User2Choice, \"Already Signed\");\r\n            MatchDetails[MatchID].User2Addr = msg.sender;\r\n            if(MatchDetails[MatchID].amount==0){\r\n                MatchDetails[MatchID].amount = amount;\r\n            }else if(MatchDetails[MatchID].amount>0){\r\n                require(MatchDetails[MatchID].amount == amount, \"Please Select The Exact Amount  \");\r\n            }\r\n        }\r\n    }\r\n\r\n    function getLeftMatch(uint MatchID) view public returns (uint){\r\n        return MatchDetails[MatchID].User1Choice;\r\n    }\r\n\r\n    function getRightMatch(uint MatchID) view public returns (uint){\r\n        return MatchDetails[MatchID].User2Choice;\r\n    }\r\n\r\n\r\n    \r\n    function getMatch(uint MatchID) view public returns(Match memory){\r\n        return MatchDetails[MatchID];\r\n    }\r\n\r\n    function getMatchAmount(uint MatchID) view public returns(uint) {\r\n        return MatchDetails[MatchID].amount;\r\n    }\r\n\r\n    function getMatchOfCurrentUser(uint MatchID) view public returns(uint, uint){\r\n        if(MatchDetails[MatchID].User1Addr == msg.sender){\r\n            return (MatchDetails[MatchID].User1Choice, MatchDetails[MatchID].amount);\r\n        }else if(MatchDetails[MatchID].User2Addr == msg.sender){\r\n            return (MatchDetails[MatchID].User2Choice, MatchDetails[MatchID].amount);\r\n        }else{\r\n            return (0,0);\r\n        }\r\n    }\r\n\r\n   function DecideWinner(uint MatchID, uint WinnerTeamID) public {\r\n    \r\n       if(MatchDetails[MatchID].User1Choice == WinnerTeamID){\r\n           // transfer the amount to user 1\r\n           delete MatchDetails[MatchID];\r\n       }else if(MatchDetails[MatchID].User2Choice == WinnerTeamID){\r\n           // transfer the amount to user 2\r\n           \r\n           delete MatchDetails[MatchID];\r\n       }\r\n   }\r\n    function getAddress() public view returns(address) {\r\n        return msg.sender;\r\n    }\r\n\r\n\r\n}",
  "sourcePath": "E:\\p2psportsbetting\\contracts\\AdminPanel.sol",
  "compiler": {
    "name": "solc",
    "version": "0.8.14+commit.80d49f37.Emscripten.clang"
  },
  "schemaVersion": "3.4.9",
  "updatedAt": "2023-01-15T13:51:23.826Z",
  "networkType": "ethereum",
  "devdoc": {
    "kind": "dev",
    "methods": {},
    "version": 1
  },
  "userdoc": {
    "kind": "user",
    "methods": {},
    "version": 1
  }
}